:020000040000FA
:08000000803102288731F02F46
:100BF800F00023009E1CFD2D70089A000800FE00DE
:100C080012001E000130FE020030FF3B7F087E0408
:100C180003190034042EF401F501701C172E720814
:100C2800F4077308F53D0130F235F30D890B182EE2
:100C38000130F136F00C890B1D2E70087104031D6C
:100C4800112E7508F1007408F0000800FA01FB0184
:100C5800FA01FB017B08803AF90080307902031D14
:100C6800372E78087A020318080076087A07840075
:100C780077087B3D850012000319080076087A077B
:100C8800840077087B3D850000088531FC25863186
:100C98000130FA070030FB3D2E2E0030FC000030FA
:100CA800FB000030FA000030F90073087204710488
:100CB800700403199A2EFD01FD0AF31B6F2E0130F3
:100CC800F035F10DF20DF30D890B642E0130F800AB
:100CD8007808FD07612E0130F935FA0DFB0DFC0D82
:100CE800890B702E73087702031D842E7208760212
:100CF800031D842E71087502031D842E700874026A
:100D0800031C8F2E7008F4027108F53B7208F63B3D
:100D18007308F73B79140130F336F20CF10CF00C40
:100D2800890B902E0130FD02031D6F2E7C08F30005
:100D38007B08F2007A08F1007908F0000800210029
:100D48008D140D158D130E138E1723008D140D158C
:100D580022008F0100302000A3000030A2002530BF
:100D6800A1008030A000A401A40AA501A50A87312A
:100D78000D2786312000B101B20120003208F100B0
:100D88003108F0002830F2000030F30086310F26D9
:100D9800863178302000AA002330AB0070082A077B
:100DA800AC0071082B3DAD002C08F6002D08F700AB
:100DB8001030AE002E08F80086312A268631003021
:100DC800F6008830F70010302000AA002A08F80042
:100DD80086312A26863101302000B1070030B23D25
:100DE8003208803AAA0080302A02031DFD2E043002
:100DF8003102031CC12E02302000AB000430AA00CF
:100E0800BA30890B052FAA0B052FAB0B052F000055
:100E1800BE2E20002408031D392F2008A600210813
:100E2800A7002208A8002308A9000630A635A70DA8
:100E3800A80DA90D890B1A2F2908F3002808F2001C
:100E48002708F1002608F0000030F7007A30F60095
:100E58001230F5000030F4008631512687317008D1
:100E6800FF3E23009B001E11602F2008A6002108CA
:100E7800A7002208A8002308A9000430A635A70D5A
:100E8800A80DA90D890B422F2908F3002808F200A4
:100E98002708F1002608F0000030F7007A30F60045
:100EA8001230F5000030F400863151268731700881
:100EB800FF3E23009B001E15200025080319682FFC
:100EC80022001D119D106B2F22001D159D1423005B
:100ED8001E139E161E129D171D131D161D119D1003
:100EE80021008E170E130800483465346C346C34B6
:100EF8006F340034003400340034003400340034DB
:100F08000034003400340034003400340034003439
:100F18000034003400340034003400340034003429
:100F28000034003400340034003400340034003419
:100F3800003400340034003477346F346E34643451
:100F480065347234663475346C34003400340034DB
:100F580000340034003400340034003400340034E9
:100F680000340034003400340034003400340034D9
:100F780000340034003400340034003400340034C9
:100F8800003400340034003477346F3472346C34F5
:100F98006434003400340034003400340034003445
:100FA8000034003400340034003400340034003499
:100FB8000034003400340034003400340034003489
:100FC8000034003400340034003400340034003479
:100FD80000340034003400347830840087308500D1
:100FE80078308600233087000030FF007830863163
:100FF800032620008631A32E0A340D340034003431
:020000040001F9
:04000E00E2F9FFFE16
:00000001FF
