:020000040000FA
:08000000803102288731FD2F39
:100F2E002400151095101511951195161512141300
:100F3E00941322009D169D151D1621008D120D175E
:100F4E008D1323008D120D130800873197278731DB
:100F5E0001302000A0000030A1000230A2000030BD
:100F6E00A3000330A4000030A5000430A60000301A
:100F7E00A7000330F0000030F10020308731C92780
:100F8E008731AF2FF700F801F9017008013EF2002A
:100F9E000030713DF3007908803AF4007308803A0E
:100FAE007402031DDC2F72087802031808007835CE
:100FBE007707F200720886008701403FF500413F37
:100FCE00F600750824009100141CEB2F0630F30078
:100FDE001330F200AE30890BF22FF20BF22FF30B1F
:100FEE00F22F0130F8070030F93DCC2F2000873169
:020FFE00AC2F16
:020000040001F9
:04000E00E2F9FFFE16
:00000001FF
