:020000040000FA
:040000008031902893
:100008007E1480310B198B1E24280B112000260822
:10001800270403192128CD0103304D020318242891
:100028004D35263E86008701160001040319242851
:100038000130CB004B08CD07102883315C23803179
:100048000B1F48282100111C48282000111C482893
:100058001110210028082904031945282000CE0181
:1000680003304E02031848284E35A83E8600870103
:1000780016000104031948280130CB004B08CE07AD
:10008800342883315C2380310B1F74282100911C94
:1000980074282000911C7428911020082104031949
:1000A8007128CF0103304F02031874284F35203EC2
:1000B8008600870116000104031974284F35203E75
:1000C80086008701413F8A00403F0A0080310130A5
:1000D8002000CB004B08CF07562883315C238031A2
:1000E8000B1F83282100911E83282000911E83283E
:1000F8003A083B04031D832883315C2380310B1AA3
:100108008B1C8E288B10200038083904031D8E287C
:1001180083315C237E100900803192288331FD23CE
:100128008031E0008331FE238031E10020308400FB
:10013800003085002B308331D4238031A0308400F7
:10014800003085004A308331D42380312030840048
:100158000130850020308331D4237E102000803187
:10016800B5282200CC0121000D178D178F0123001F
:100178000D138F01183022008F008231AB2280319D
:1001880083317623803106302000DF001330DE0013
:10019800AD30890BCD28DE0BCD28DF0BCD28003202
:1001A80028302000DE005E08D100D6308131F121F0
:1001B80080312A302000DE005E08D100D63081313F
:1001C800F12180312C302000DE005E08D100D630CD
:1001D8008131F121803128302000DE005E08D10015
:1001E80032308131F1218031200052082200CB00C9
:1001F800200051082200CA002A302000DE005E08D4
:10020800D10032308131F12180312C302000DE00E4
:100218005E08D10032308131F121803122004B0853
:10022800803A2000DE008F305E02031D1E29A130B7
:1002380022004A02031C302901302000DE005E083B
:100248002200CC070F304C02031C522920000F3526
:1002580022008F0001304D2922004B08803A2000EF
:10026800DE0070305E02031D3C29603022004A0225
:100278000318502901302000DE005E082200CC0758
:100288000F304C02031C522920000F3622008F0029
:10029800003083310E2380312200CC011A30200037
:1002A800DE00F830890B5629DE0B56290000D428C9
:1002B800F8007808F4007408F90072087304031948
:1002C80008007008F4007908860087017408810026
:1002D8007008F40072087907F5007508FF3E86007B
:1002E8008701740881000030730203300319720219
:1002F800031C08007008F400790A86008701740856
:1003080081007008F4007908023E860087017408AD
:1003180081007008F40072087907F5007508FE3E40
:1003280086008701740881007008F4007208790754
:10033800F5007508FD3E86008701740881000030CD
:100348007302073003197202031C08007008F400D6
:100358007908033E86008701740881007008F4005C
:1003680072087907F5007508FC3E86008701740855
:10037800810000307302093003197202031C08005F
:100388007909F4007A09F500F40A0319F50A03302B
:100398007405F60000307505F7007608F400740857
:1003A800F9077608F2027708F33BFC30F205FF30D4
:1003B800F30572087304031908007008F40079083B
:1003C80086008701740881000130F2020030F33B97
:1003D8000130F4007408F907DD292000DD008331BD
:1003E800E423813120005D088331CC238131200052
:1003F80051088331CC2381318331DA2381312000C4
:100408005D08013E8331CC238131003083312423C0
:1004180081312000D3005308DC008331DF23813190
:100428008331E423813120005D088331CC2381317D
:1004380020005108013E8331CC2381318331DA23F6
:10044800813120005D08013E8331CC2381310030A9
:100458008331242381312000D300D4015308D800EC
:100468005408D9008331DF2320005C08D300D4016D
:100478005908D6005808D5005508D600D5015308A4
:100488005507DA005408563DDB005B08D2005A08CD
:10049800D1000800200047088600870101084506AA
:1004A8000319622A0030F000F1003C30F2000030FD
:1004B800F300AE3081315C2182319E2AFD01063085
:1004C800FA007A08F0007D0883314B238231AE3E72
:1004D800860087010103031D962A0630FA007A0870
:1004E800F0007D0883314B238231B23E86008701BC
:1004F800403FFB00413FFC0020003D087C06031DF7
:10050800872A3C087B06031D962A0630FA007A08DB
:10051800F0007D0883314B238231AF3E860087018E
:100528008101810A0130FA007A08FD070A307D024C
:10053800031C632A20004708860087010108FA0087
:100548007A08C5000130BC070030BD3D0800833182
:10055800812382318331E4238231D6308331CC2325
:10056800823120308331CC2382312B308331CC232C
:1005780082318331DF2382318331E4238231323087
:100588008331CC23823120308331CC2382316730D0
:100598008331CC2382318331DF2382310430200040
:1005A800D2000C30D1003330890BD82AD10BD82A8D
:1005B800D20BD82A00320800003071022330031908
:1005C8007002031CFD2A0230F3006C30F200A030E8
:1005D800890BEC2AF20BEC2AF30BEC2A2330F002FD
:1005E8000030F13B00307102233003197002031808
:1005F800E72A70087104031908000B30F200623012
:10060800890B042BF20B042B00320130F00200306E
:10061800F13BFD2A2000D1000A305106031D1E2B94
:100628000A3023009A009E1C172B0D302000D000A2
:100638005008D100510823009A009E180800212B69
:100648002000D000240096158331E923833120004F
:100658005008031D322B24009616342B24009612C2
:1006680016168331E92324001108080004340E34D7
:1006780015340434043404340434003449344E3416
:10068800463449344E344934543459340034F30030
:10069800F201731C532B7008F1007108F207031064
:1006A800F00D0310F30C7308031D4D2B720808009E
:1006B8000130F400740822008F063230F000003058
:1006C800F1008231E02283315C2B27302000370291
:1006D800103003193602031808000130B60700303D
:1006E800B73D0800203023009E0090309D00443024
:1006F8009B009C011E159F15080022001D169D15C4
:100708004F3024009200083095009516080069348F
:100718006E34663469346E34693474347934003430
:100728000134013402340234023414340C340034F9
:10073800043404340434043415340E3404340034DA
:1007480078344134633463346C343A3420340034BC
:1007580079344134633463346C343A3420340034AB
:1007680078344734793472346F343A34203400346E
:1007780079344734793472346F343A34203400345D
:100788007A344734793472346F343A34203400344C
:100798002000D0005008240091008331E92308008C
:1007A800640080010131890BD52B00342400961494
:1007B8008331E9230800240016158331E923080052
:1007C800240016148331E92308002000911DE92B29
:1007D800911108004E3441344E34003469346E347B
:1007E800663400346E3461346E3400342534643435
:0A07F8000034013401340A340034E7
:020000040001F9
:04000E00C2D9FFDF75
:00000001FF
